:020000040800F2
:1000000000800120911700083916000841160008E9
:100010004916000851160008591600080000000093
:10002000000000000000000000000000018C00083B
:100030006116000800000000518E00086F160008CD
:10004000E1170008E1170008E1170008E1170008B0
:10005000E1170008E1170008E1170008E1170008A0
:10006000E1170008E1170008E1170008E117000890
:10007000E1170008E1170008E1170008E117000880
:10008000E1170008E11700088916000800000000C9
:10009000000000000000000000000000E117000860
:1000A000E1170008E1170008E1170008E117000850
:1000B0009D160008E1170008E1170008E117000885
:1000C000E1170008E1170008E1170008E117000830
:1000D000E1170008B1160008E11700080000000051
:1000E000E1170008E1170008E11700080000000010
:1000F000000000000000000000000000E117000800
:1001000000000000E1170008E1170008E1170008EF
:1001100000000000000000000000000000000000DF
:10012000C5160008E1170008E1170008E1170008EC
:10013000E1170008000000000000000000000000BF
:10014000000000000000000000000000E1170008AF
:10015000E1170008D9160008E1170008ED1600089D
:10016000E1170008E117000800000000000000008F
:10017000000000000000000000000000000000007F
:1001800000000000E117000800000000000000006F
:04019000E11700086B
:1001A00010B5054C237833B9044B13B10448AFF3B1
:1001B00000800123237010BDA0000020000000007B
:1001C000209D000808B5034B1BB103490348AFF35A
:1001D000008008BD00000000A4000020209D000851
:1001E00001F0FF01102A2BDB10F0070F08D010F8E8
:1001F000013B013A8B422DD010F0070F42B3F6D1EC
:10020000F0B441EA012141EA014122F007047FF004
:1002100000070023F0E80256083C85EA010586EA5B
:10022000010685FA47F5A3FA87F586FA47F6A5FA97
:1002300087F68EB9EED1F0BC01F0FF0102F00702A3
:1002400032B110F8013B013A83EA010313B1F8D14E
:100250000020704701387047002D06BF354603382F
:10026000073815F0010F07D1013015F4807F02BF68
:10027000013015F4C03F0130F0BC0138704700BFB9
:1002800053B94AB9002908BF00281CBF4FF0FF31FD
:100290004FF0FF3000F088B9ADF1080C6DE904CEE5
:1002A00000F006F8DDF804E0DDE9022304B0704751
:1002B0002DE9F047089D8E4604468846002B4AD11A
:1002C0008A42174662D9B2FA82F64EB1C6F12003CD
:1002D00001FA06F820FA03F3B74043EA0808B440ED
:1002E0004FEA174E1FFA87FCB8FBFEF1230C0EFBFA
:1002F000118843EA084301FB0CF29A4209D9FB1822
:1003000001F1FF3080F0EA809A4240F2E780023942
:100310003B449A1AA3B2B2FBFEF00EFB102243EA52
:10032000024300FB0CFC9C4509D9FB1800F1FF328D
:1003300080F0D6809C4540F2D3803B44023840EAAE
:100340000140A3EB0C0300211DB1F3400022C5E9DD
:100350000032BDE8F0878B4205D90DB1C5E9000137
:1003600000210846F5E7B3FA83F1002946D1734529
:1003700002D3824200F20581841A6EEB030201204F
:100380009046002DE5D0C5E90048E2E7002A00F0DC
:100390009080B2FA82F6002E40F0A4808A1A030CF4
:1003A0004FEA174E80B2BCB20121B2FBFEFC0EFB3D
:1003B0001C2243EA024304FB0CF29A4207D9FB18C1
:1003C0000CF1FF3802D29A4200F2E080C4469B1A38
:1003D000B3FBFEF20EFB123340EA034302FB04F4CC
:1003E0009C4207D9FB1802F1FF3002D29C4200F276
:1003F000CA8002461B1B42EA0C40A5E7C1F1200659
:100400008B4022FA06F71F430EFA01F420FA06F396
:100410002EFA06FE4FEA1749234300FA01F81FFAA5
:1004200087FCBEFBF9F01C0C09FB10EE44EA0E44FD
:1004300000FB0CFEA64502FA01F209D93C1900F1B5
:10044000FF3A80F09C80A64540F2998002383C44F7
:10045000A4EB0E041FFA83FEB4FBF9F309FB13446B
:100460004EEA044403FB0CFCA44508D93C1903F1F3
:10047000FF3E80F08280A4457FD9023B3C4443EAA2
:100480000040A4EB0C04A0FB02EC64457346E1467B
:1004900062D35FD05DB1B8EB030264EB090404FAE8
:1004A00006F622FA01F31E43CC40C5E900640021A0
:1004B0004FE7B1FBF2FC010C41EA0E4180B240EA89
:1004C00001423B4638463C46B846BE462026B1FB74
:1004D000F7F1A2EB080241EA0C4166E7014618E792
:1004E00010462CE7C6F120022EFA02F3B740B140C5
:1004F00020FA02F24FEA174E0A43B3FBFEF8BCB2F1
:100500000EFB1833110C41EA034108FB04F9B0401B
:1005100089454FEA104380B23ED9791808F1FF3C73
:1005200001D289451FD8A1EB0901B1FBFEF909FBF6
:1005300004F80EFB191192B242EA0142424529D257
:10054000BA1809F1FF31C4D24245C2D2A9F1020161
:100550003A44BEE7F0459DD2BEEB02036CEB070CBC
:100560000138E14696E7A7EB09094944A8F1020CD6
:10057000B1FBFEF909FB04F8DBE773467FE7504661
:1005800066E70846FDE63B44023A33E7ACF1020C6D
:100590003B441CE749469CE7A1EB0901C446B1FB7B
:1005A000FEF909FB04F8C4E7704700BF80B400AF50
:1005B000BFF34F8F00BF064BDB6803F4E0620449D2
:1005C000044B1343CB60BFF34F8F00BF00BFFDE769
:1005D00000ED00E00400FA0580B500AF01F002F97B
:1005E00000F088F800F090FA00F066FA00F03AFAAD
:1005F00000F0EAF800F0E2F900F092F900F07CF97E
:1006000000F006FA01222549254804F052FA012299
:100610002449254804F04DFA00F0A8FB0346234A7C
:10062000136005F05DFB224805F051FC0346214AAA
:100630001360214A0221102005F057FD03461F4A8E
:1006400013601F4A0221102005F04FFD03461D4A8A
:1006500013601D4A0221102005F047FD03461B4A86
:1006600013601B4A00211B4805F084FB03461A4A0D
:1006700013601A4A00211A4805F07CFB0346194A08
:100680001360194A0021194805F074FB0346184A03
:10069000136005F049FB0023184680BDD4000020FC
:1006A00078020020D5000020E8010020BC000020D6
:1006B000B09E000838030020689E00082C0300202C
:1006C000809E000830030020989E0008340300201C
:1006D000FC9D0008F10F000820030020209E000868
:1006E0000110000824030020449E0008F9100008AF
:1006F0002803002080B594B000AF07F1200330221A
:100700000021184608F08EFE07F10C0300221A6043
:100710005A609A60DA601A610023BB60284B1B6C38
:10072000274A43F080531364254B1B6C03F080531E
:10073000BB60BB6800237B60224B1B6823F44043F3
:10074000204A43F4004313601E4B1B6803F44043EC
:100750007B607B6801233B624FF480337B62022322
:10076000BB634FF48003FB6304233B6432237B644D
:100770000223BB640423FB6407F12003184602F044
:10078000F1FF0346002B01D000F04AFD0F23FB6070
:1007900002233B6180237B614FF48053BB610023C4
:1007A000FB6107F10C030021184603F053FA0346DE
:1007B000002B01D000F034FD00BF5037BD4680BD96
:1007C000003802400070004080B584B000AF3B4666
:1007D00000221A605A609A60DA60444B444A1A60F8
:1007E000424B00225A60414B00229A603F4B01224B
:1007F0001A613E4B00221A763C4B002283F82020DF
:100800003A4B0022DA62394B3A4A9A62374B00225D
:10081000DA60364B0622DA61344B002283F830204E
:10082000324B00225A61314801F04EF80346002B4A
:1008300001D000F0F5FC00233B6001237B6007231F
:10084000BB603B461946294801F0FEFA0346002BDF
:1008500001D000F0E5FC01233B6002237B603B46B6
:100860001946224801F0F0FA0346002B01D000F0AF
:10087000D7FC04233B6003237B603B4619461B489F
:1008800001F0E2FA0346002B01D000F0C9FC062378
:100890003B6004237B603B461946144801F0D4FAC0
:1008A0000346002B01D000F0BBFC07233B6005236F
:1008B0007B603B4619460D4801F0C6FA0346002B03
:1008C00001D000F0ADFC08233B6006237B603B4673
:1008D0001946064801F0B8FA0346002B01D000F093
:1008E0009FFC00BF1037BD4680BD00BFF000002058
:1008F000002001400100000F80B500AF064B074A01
:100900001A60054801F05BFE0346002B01D000F0A1
:1009100087FC00BF80BD00BF98010020003002406E
:1009200080B586B000AF07F1080300221A605A6054
:100930009A60DA603B4600221A605A601E4B4FF004
:1009400080421A601C4B42F2CF025A601A4B0022BE
:100950009A60194B44F2C052DA60174B00221A61B8
:10096000154B00229A61144803F094FB0346002BB8
:1009700001D000F055FC4FF48053BB6007F1080331
:1009800019460D4803F028FD0346002B01D000F066
:1009900047FC00233B6000237B603B46194606482A
:1009A00003F02AFF0346002B01D000F039FC00BF02
:1009B0001837BD4680BD00BFA001002080B500AF44
:1009C000114B124A1A60104B4FF416525A600E4BDC
:1009D00000229A600C4B0022DA600B4B00221A6155
:1009E000094B0C225A61084B00229A61064B0022E7
:1009F000DA61054803F082FF0346002B01D000F0C6
:100A00000FFC00BF80BD00BFE801002000100140C6
:100A100080B500AF114B124A1A60104B4FF41652BA
:100A20005A600E4B00229A600C4B0022DA600B4B8E
:100A300000221A61094B0C225A61084B00229A616C
:100A4000064B0022DA61054803F058FF0346002BED
:100A500001D000F0E5FB00BF80BD00BF30020020E8
:100A60000044004080B500AF114B124A1A60104B91
:100A70004FF416525A600E4B00229A600C4B002223
:100A8000DA600B4B00221A61094B0C225A61084BA9
:100A900000229A61064B0022DA61054803F02EFF1E
:100AA0000346002B01D000F0BBFB00BF80BD00BFA0
:100AB000780200200014014080B582B000AF00230E
:100AC0007B60104B1B6B0F4A43F4800313630D4B89
:100AD0001B6B03F480037B607B68002205213820B8
:100AE00001F037FD382001F050FD0022052145209E
:100AF00001F02FFD452001F048FD00BF0837BD463D
:100B000080BD00BF0038024080B58AB000AF07F159
:100B1000140300221A605A609A60DA601A61002396
:100B20003B614D4B1B6B4C4A43F0040313634A4B30
:100B30001B6B03F004033B613B690023FB60464BE6
:100B40001B6B454A43F080031363434B1B6B03F05D
:100B50008003FB60FB680023BB603F4B1B6B3E4A7E
:100B600043F0010313633C4B1B6B03F00103BB60B9
:100B7000BB6800237B60384B1B6B374A43F0020392
:100B80001363354B1B6B03F002037B607B68002310
:100B90003B60314B1B6B304A43F0080313632E4B11
:100BA0001B6B03F008033B603B6800224FF4745159
:100BB0002A4802F0BDFD00224FF4C151284802F03E
:100BC000B7FD00224FF40041264802F0B1FD00229B
:100BD0000421254802F0ACFD4FF474537B610123DE
:100BE000BB610023FB6100233B6207F1140319463C
:100BF0001A4802F019FC4FF4C1537B610123BB6119
:100C00000023FB6100233B6207F1140319461448DB
:100C100002F00AFC4FF400437B610123BB61002317
:100C2000FB6100233B6207F1140319460D4802F0F3
:100C3000FBFB04237B610123BB610023FB610023D9
:100C40003B6207F114031946074802F0EDFB00BFB1
:100C50002837BD4680BD00BF003802400008024072
:100C60000000024000040240000C024080B584B045
:100C700000AF78607B681B68264A934245D1264BBB
:100C80001B7883F00103DBB2002B1FD0234B1B78B2
:100C90000D2B08D1204B01221A7004222049214833
:100CA00003F007FF31E00023BB811C4B1B783B7333
:100CB0001D4B186807F10C010023002205F088FA8B
:100CC00001221649174803F0F4FE1EE0144B1B786E
:100CD0001A06134B5B781B041A43114B9B781B02BB
:100CE00013430F4AD2781343104A13600A4B002271
:100CF0001A70012209490B4803F0DBFE4FF0FF3365
:100D000010220B49074803F049FE00BF1037BD46CB
:100D100080BD00BF00140140E0000020D40000208E
:100D2000D80000207802002030030020DC000020E2
:100D3000989D000880B584B000AF78607B681B6820
:100D4000B3F1804F0BD10023BB8101237B73064B92
:100D5000186807F10C010023002205F039FA00BFE2
:100D60001037BD4680BD00BF2C03002080B483B087
:100D700000AF0C4B7B6009E07B681B68B3F1FF3F61
:100D800001D17B6807E07B6804337B607B68064A9F
:100D90009342F1D9002318460C37BD465DF8047B19
:100DA000704700BF00000608FFFF070880B500AFCE
:100DB00000224FF480510D4802F0BAFC00224FF49B
:100DC00000610A4802F0B4FC01224FF48061074838
:100DD00002F0AEFC064805F05FF800224FF4806197
:100DE000024802F0A5FC00BF80BD00BF0008024021
:100DF000C0D40100B0B586B000AF78607B683B61BD
:100E00001D4B1B684FF0FF31184605F0E6F802F065
:100E100079F800237B611AE07B699B001A46174B27
:100E20001B681344FB607B699B003A6913441B6891
:100E300000221C46154622462B46F968022002F085
:100E40000FF80346002B06D17B6901337B617B6978
:100E5000042BE1DD00E000BF084B1B681433074A98
:100E6000136002F071F8044B1B68184605F000F996
:100E700000BF1837BD46B0BD38030020BC000020BD
:100E800080B584B000AF124B1B684FF0FF3118469D
:100E900005F0A3F80F4BFB600F4B1B68BB60BA68F3
:100EA000FB689A4210D9BA68FB68D31A7B60FB686A
:100EB0007A6892B21946094803F020FE044B1B6879
:100EC000184605F0D5F800E000BF1037BD4680BDDC
:100ED0003803002000000608BC0000207802002033
:100EE00080B582B000AF78607B681B68104A93427F
:100EF0001AD1104B1A88104B9A800E4B5A880E4B01
:100F0000DA800C4B9A880C4B1A810A4BDA880A4B10
:100F10005A81084B1A89084B9A81064B5A89064B0D
:100F2000DA81064800F018FF00BF0837BD4680BDD3
:100F300000200140E4000020C0000020F00000205C
:100F400080B586B000AF134B1B684FF0FF311846D9
:100F500005F043F800233B6001F0D4FF00237B60E1
:100F60000123BB6001233B610623FB6002237B61FD
:100F70003A463B1D1146184602F036F901F0E4FFEF
:100F8000044B1B68184605F073F800BF1837BD46C0
:100F900080BD00BF3803002080B586B000AF134B82
:100FA0001B684FF0FF31184605F017F800233B602F
:100FB00001F0A8FF00237B600123BB6001233B619C
:100FC0000723FB6002237B613A463B1D114618460E
:100FD00002F00AF901F0B8FF044B1B68184605F04F
:100FE00047F800BF1837BD4680BD00BF380300205A
:100FF00080B582B000AF78601E2004F04DFFFBE7A3
:10100000F0B5ADB006AF786001222021304802F083
:101010008FFB304B186807F18C014FF0FF33002233
:1010200005F036F9C7F89400D7F89430002BEBD1CF
:1010300097F88D30012BE7D100F03AFC0346264AA1
:10104000A2FB03239A09254B1B681344244A13600F
:1010500006222449244800F08BFD0A2004F01CFFDE
:101060001F4B9B881E461E4BDB881A461C4B1B8958
:1010700019461B4B5B891C46194B9B891D46184B17
:10108000DB8907F10C00049303950294019100920F
:101090003346164A802108F08FF9C7F89000D7F838
:1010A00090309AB207F10C014FF0FF33104803F073
:1010B00075FC05220A490F4801F09DFA0346084ACB
:1010C00013610748FFF796FE002387F88D309BE7F2
:1010D000000002402C030020D34D6210DC000020F1
:1010E000C0000020E4000020F0000020AC9D0008BB
:1010F000780200209801002080B584B000AF7860AD
:10110000404B186807F108014FF0FF33002205F04B
:10111000BFF8F860FB68002BF2D14FF0FF331C22C0
:1011200039493A4803F03AFC3B7A013B102B66D828
:1011300001A252F823F000BF811100088F110008AE
:10114000B5110008BB110008FF110008C911000803
:10115000D7110008E5110008ED110008FF11000883
:10116000F3110008F9110008FF110008FF11000831
:10117000FF110008FF1100087D110008FFF716FAA3
:1011800001224FF48051224802F0D2FA38E00A23BB
:10119000062220491D4803F001FC01224FF40061A2
:1011A0001B4802F0C5FA0A2306221B49174803F020
:1011B000F5FB25E0FFF7FAFD22E000224FF4806105
:1011C000134802F0B5FA1BE000224FF4805110489A
:1011D00002F0AEFA14E000224FF400610C4802F075
:1011E000A7FA0DE00D4802F0A5FF09E0FFF748FE61
:1011F00006E0FFF7D1FE03E0FFF7A2FE00E000BF2C
:101200007EE700BF300300200000002078020020AD
:1012100000080240D49D0008DC9D0008A0010020C9
:1012200080B400AF00BFBD465DF8047B704700008E
:1012300080B582B000AF00237B60124B5B6C114A1B
:1012400043F4804353640F4B5B6C03F480437B6037
:101250007B6800233B600B4B1B6C0A4A43F08053B6
:101260001364084B1B6C03F080533B603B68002207
:101270000F216FF0010001F06CF900BF0837BD4687
:1012800080BD00BF0038024080B58AB000AF7860F2
:1012900007F1140300221A605A609A60DA601A613A
:1012A0007B681B68404A93427AD100233B613F4BE5
:1012B0005B6C3E4A43F4807353643C4B5B6C03F4B9
:1012C00080733B613B690023FB60384B1B6B374AE3
:1012D00043F001031363354B1B6B03F00103FB6009
:1012E000FB680023BB60314B1B6B304A43F00203A9
:1012F00013632E4B1B6B03F00203BB60BB68D3234D
:101300007B610323BB610023FB6107F114031946D2
:10131000274802F089F801237B610323BB61002386
:10132000FB6107F114031946224802F07DF8224BB5
:10133000224A1A60204B00225A601F4B00229A60FA
:101340001D4B0022DA601C4B4FF480621A611A4B6D
:101350004FF400625A61184B4FF400529A61164BD9
:101360004FF48072DA61144B4FF480321A62124BE0
:1013700000225A62104801F071F90346002B01D097
:10138000FFF74EFF7B680C4A9A630B4A7B689363B6
:1013900000220521122001F0DCF8122001F0F5F8FE
:1013A00000BF2837BD4680BD002001400038024004
:1013B0000000024000040240380100201064024096
:1013C00080B485B000AF78607B681B680B4A93429D
:1013D0000DD10023FB600A4B1B6B094A43F4805379
:1013E0001363074B1B6B03F48053FB60FB6800BF68
:1013F0001437BD465DF8047B704700BF00300240E3
:101400000038024080B584B000AF78607B681B680C
:10141000B3F1804F15D10023FB600C4B1B6C0B4AC2
:1014200043F001031364094B1B6C03F00103FB60E1
:10143000FB68002205211C2001F08BF81C2001F024
:10144000A4F800BF1037BD4680BD00BF0038024081
:1014500080B58EB000AF786007F1240300221A60D7
:101460005A609A60DA601A617B681B686A4A934224
:1014700035D100233B62694B5B6C684A43F0100333
:101480005364664B5B6C03F010033B623B6A0023C2
:10149000FB61624B1B6B614A43F0010313635F4BBB
:1014A0001B6B03F00103FB61FB694FF4C0637B62BC
:1014B0000223BB620023FB6203233B6307237B639E
:1014C00007F124031946564801F0AEFF002205211A
:1014D000252001F03EF8252001F057F898E07B68C0
:1014E0001B68504A93422CD10023BB614B4B1B6CB1
:1014F0004A4A43F400331364484B1B6C03F4003333
:10150000BB61BB6900237B61444B1B6B434A43F0C7
:1015100001031363414B1B6B03F001037B617B6988
:101520000C237B620223BB620023FB6203233B6329
:1015300007237B6307F124031946394801F074FF40
:1015400066E07B681B68384A934261D100233B61A7
:10155000324B5B6C314A43F0200353642F4B5B6C7E
:1015600003F020033B613B690023FB602B4B1B6BAB
:101570002A4A43F004031363284B1B6B03F0040354
:10158000FB60FB68C0237B620223BB620023FB621B
:1015900003233B6308237B6307F124031946234895
:1015A00001F042FF224B234A1A60214B4FF0206288
:1015B0005A601F4B40229A601D4B0022DA601C4B80
:1015C0004FF480621A611A4B00225A61184B0022B4
:1015D0009A61174B0022DA61154B00221A62144BF4
:1015E00000225A62124801F039F80346002B01D05C
:1015F000FFF716FE7B680E4A9A630D4A7B68936379
:1016000000220521472000F0A4FF472000F0BDFF85
:1016100000BF3837BD4680BD001001400038024091
:101620000000024000440040001401400008024055
:10163000C0020020A064024080B400AF00BFFDE7FC
:1016400080B400AF00BFFDE780B400AF00BFFDE78E
:1016500080B400AF00BFFDE780B400AF00BFFDE77E
:1016600080B400AF00BFBD465DF8047B704780B515
:1016700000AF00F009F906F023FD0346012B01D06D
:1016800007F01AFC00BF80BD80B500AF024800F033
:101690005EF900BF80BD00BFF000002080B500AF44
:1016A000024802F0A9FD00BF80BD00BFA0010020DC
:1016B00080B500AF024803F09DFA00BF80BD00BFB7
:1016C000E801002080B500AF024801F05FF900BFDB
:1016D00080BD00BF3801002080B500AF024801F096
:1016E00055F900BF80BD00BFC002002080B500AF2B
:1016F000024803F07FFA00BF80BD00BF78020020DF
:1017000080B586B000AF7860144A154BD31A7B6160
:101710007B693B61134B1B68002B02D1114B124AB2
:101720001A60104B1A687B6813443A699A4207D2D0
:1017300007F080FE03460C221A604FF0FF3309E0E9
:10174000084B1B68FB60074B1A687B681344054A0B
:101750001360FB6818461837BD4680BD0080012025
:10176000000400003C030020E04D002080B400AFE6
:10177000064BD3F88830054A43F47003C2F888302A
:1017800000BFBD465DF8047B704700BF00ED00E080
:10179000DFF834D0FFF7EAFF0C480D490D4A00236B
:1017A00002E0D458C4500433C4188C42F9D30A4A16
:1017B0000A4C002301E013600432A242FBD307F07D
:1017C0003FFEFEF709FF7047008001200000002067
:1017D000A0000020249F0008A0000020DC4D002075
:1017E000FEE7000080B500AF0E4B1B680D4A43F4C6
:1017F000007313600B4B1B680A4A43F48063136049
:10180000084B1B68074A43F480731360032000F001
:1018100095FE0F2000F008F8FFF70AFD0023184698
:1018200080BD00BF003C024080B582B000AF786050
:10183000124B1A68124B1B7819464FF47A73B3FB9C
:10184000F1F3B2FBF3F3184600F0ADFE0346002BB4
:1018500001D001230EE07B680F2B0AD800227968A3
:101860004FF0FF3000F075FE064A7B6813600023DE
:1018700000E0012318460837BD4680BD2000002047
:10188000280000202400002080B400AF064B1B7805
:101890001A46064B1B681344044A136000BFBD463A
:1018A0005DF8047B704700BF280000204003002043
:1018B00080B400AF034B1B681846BD465DF8047B3F
:1018C000704700BF4003002080B584B000AF78604F
:1018D0000023FB737B68002B01D1012333E07B687D
:1018E0001B6C002B09D17868FFF7CEFC7B680022C7
:1018F0005A647B68002283F83C207B681B6C03F0F1
:101900001003002B18D17B681B6C23F4885323F041
:10191000020343F002027B681A64786800F0B6FBA9
:101920007B6800225A647B681B6C23F0030343F03E
:1019300001027B681A6401E00123FB737B680022CB
:1019400083F83C20FB7B18461037BD4680BD80B530
:1019500086B000AF786000237B6100233B617B6829
:101960001B681B68FB607B681B685B68BB60FB686F
:1019700003F002037B61BB6803F020033B617B69DA
:10198000002B49D03B69002B46D07B681B6C03F0D1
:101990001003002B05D17B681B6C43F400727B683D
:1019A0001A647B681B689B6803F04053002B2BD1A3
:1019B0007B681B7E002B27D17B681B68DB6A03F4E6
:1019C0007003002B06D07B681B689B6803F4806360
:1019D000002B19D17B681B685A687B681B6822F052
:1019E00020025A607B681B6C23F480727B681A6447
:1019F0007B681B6C03F48053002B05D17B681B6C48
:101A000043F001027B681A647868FFF769FA7B6823
:101A10001B686FF012021A60FB6803F004037B611D
:101A2000BB6803F080033B617B69002B57D03B69A7
:101A3000002B54D07B681B6C03F01003002B05D1E6
:101A40007B681B6C43F400527B681A647B681B68DC
:101A50009B6803F44013002B39D17B681B689B6B98
:101A600003F44013002B06D07B681B689B6803F4CB
:101A70008063002B2BD17B681B685B6803F4806359
:101A8000002B24D17B681B689B6803F04053002B1C
:101A90001DD17B681B7E002B19D17B681B685A689F
:101AA0007B681B6822F080025A607B681B6C23F401
:101AB00080527B681A647B681B6C03F48073002B74
:101AC00005D17B681B6C43F001027B681A6478685F
:101AD00000F05AFC7B681B686FF00C021A60FB6810
:101AE00003F001037B61BB6803F040033B617B694A
:101AF000002B17D03B69002B14D07B681B681B6838
:101B000003F00103012B0DD17B681B6C43F4803281
:101B10007B681A64786800F083F97B681B686FF053
:101B200001021A60FB6803F020037B61BB6803F0CD
:101B300080633B617B69002B15D03B69002B12D081
:101B40007B685B6C43F002027B685A647B681B68AD
:101B50006FF020021A60786800F06CF97B681B68EF
:101B60006FF020021A6000BF1837BD4680BD00002C
:101B700080B588B000AFF860B9607A6000237B61FF
:101B80000023FB77FB6893F83C30012B01D1022343
:101B9000D0E0FB68012283F83C20FB681B689B684F
:101BA00003F00103012B18D0FB681B689A68FB68DF
:101BB0001B6842F001029A60604B1B68604AA2FBFE
:101BC00003239A0C13465B0013447B6102E07B699C
:101BD000013B7B617B69002BF9D1FB681B689B682B
:101BE00003F48073B3F5807F07D1FB681B689A68A4
:101BF000FB681B6822F480729A60FB681B689B6814
:101C000003F00103012B40F08880FB681B6C23F478
:101C1000E06323F0010343F48072FB681A64FB68FD
:101C20001B685B6803F48063002B07D0FB681B6CA8
:101C300023F4405343F48052FB681A64FB681B6C26
:101C400003F48053B3F5805F06D1FB685B6C23F02F
:101C50000602FB685A6402E0FB6800225A64FB68D3
:101C6000002283F83C20374BBB61FB689B6B364AF4
:101C7000DA63FB689B6B354A1A64FB689B6B344ADA
:101C8000DA64FB681B686FF022021A60FB681B684D
:101C90005A68FB681B6842F080625A60FB681B68E8
:101CA0009A68FB681B6842F480729A60FB68986BC4
:101CB000FB681B684C331946BA687B6800F07CFDF2
:101CC0000346FB77BB695B6803F01F03002B0FD152
:101CD000FB681B689B6803F04053002B29D1FB680D
:101CE0001B689A68FB681B6842F080429A6020E09B
:101CF000FB681B68174A93421BD1FB681B689B68F3
:101D000003F04053002B14D1FB681B689A68FB68F2
:101D10001B6842F080429A600BE0FB681B6C43F04A
:101D20001002FB681A64FB685B6C43F00102FB68FD
:101D30005A64FB7F18462037BD4680BD2000002036
:101D400083DE1B4300230140852200083F23000857
:101D50005B2300080020014080B584B000AF7860AC
:101D60000023FB737B6893F83C30012B01D10223E5
:101D700048E07B68012283F83C207B681B689A68F6
:101D80007B681B6822F001029A607B681B689B6875
:101D900003F00103002B30D17B681B689A687B68D5
:101DA0001B6822F480729A607B689B6B93F83530D5
:101DB000DBB2022B0FD17B689B6B184600F054FD01
:101DC0000346FB73FB7B002B05D07B681B6C43F049
:101DD00040027B681A647B681B685A687B681B68D2
:101DE00022F080625A607B681B6C23F4885323F0D6
:101DF000010343F001027B681A647B68002283F8C8
:101E00003C20FB7B18461037BD4680BD80B483B0B4
:101E100000AF786000BF0C37BD465DF8047B7047AB
:101E200080B483B000AF786000BF0C37BD465DF86A
:101E3000047B704780B483B000AF786000BF0C377C
:101E4000BD465DF8047B704780B485B000AF786014
:101E500039600023BB607B6893F83C30012B01D1D3
:101E6000022305E17B68012283F83C203B681B6864
:101E7000092B25D97B681B68D9683B681B689BB216
:101E80001A4613465B0013441E3B072202FA03F373
:101E9000DA437B681B680A40DA607B681B68D96894
:101EA0003B689A683B681B689BB2184603465B0018
:101EB00003441E3B9A407B681B680A43DA6022E0B9
:101EC0007B681B6819693B681B689BB21A461346FE
:101ED0005B001344072202FA03F3DA437B681B68B2
:101EE0000A401A617B681B6819693B689A683B68FD
:101EF0001B689BB2184603465B0003449A407B680C
:101F00001B680A431A613B685B68062B24D87B6810
:101F10001B68596B3B685A6813469B001344053B8A
:101F20001F2202FA03F3DA437B681B680A405A63F4
:101F30007B681B68596B3B681B689BB218463B6803
:101F40005A6813469B001344053B00FA03F27B6872
:101F50001B680A435A634CE03B685B680C2B24D82F
:101F60007B681B68196B3B685A6813469B001344D7
:101F7000233B1F2202FA03F3DA437B681B680A4003
:101F80001A637B681B68196B3B681B689BB2184619
:101F90003B685A6813469B001344233B00FA03F244
:101FA0007B681B680A431A6323E07B681B68D96A55
:101FB0003B685A6813469B001344413B1F2202FAB8
:101FC00003F3DA437B681B680A40DA627B681B68AC
:101FD000D96A3B681B689BB218463B685A6813462F
:101FE0009B001344413B00FA03F27B681B680A43E1
:101FF000DA62224BFB607B681B68214A934209D15D
:102000003B681B68122B05D1FB685B6843F48002B8
:10201000FB685A607B681B68194A934223D13B686E
:102020001B68102B03D03B681B68112B1BD1FB686E
:102030005B6843F40002FB685A603B681B68102B26
:1020400011D1104B1B68104AA2FB03239A0C1346B4
:102050009B0013445B00BB6002E0BB68013BBB60BC
:10206000BB68002BF9D17B68002283F83C20002359
:1020700018461437BD465DF8047B704700230140C5
:10208000002001402000002083DE1B4380B485B087
:1020900000AF7860794BFB60FB685B6823F44032EB
:1020A000FB685A60FB685A687B685B681A43FB6888
:1020B0005A607B681B685A687B681B6822F48072D0
:1020C0005A607B681B6859687B681B691A027B68C9
:1020D0001B680A435A607B681B685A687B681B68E8
:1020E00022F040725A607B681B6859687B689A6866
:1020F0007B681B680A435A607B681B689A687B6828
:102100001B6822F400629A607B681B6899687B6890
:10211000DA687B681B680A439A607B689B6A584A46
:10212000934222D07B681B689A687B681B6822F008
:1021300070629A607B681B6899687B689A6A7B68A2
:102140001B680A439A607B681B689A687B681B68F7
:1021500022F040529A607B681B6899687B68DA6A53
:102160007B681B680A439A600FE07B681B689A686B
:102170007B681B6822F070629A607B681B689A68B3
:102180007B681B6822F040529A607B681B689A68E3
:102190007B681B6822F002029A607B681B68996862
:1021A0007B681B7E5A007B681B680A439A607B68C9
:1021B00093F82030002B1BD07B681B685A687B6823
:1021C0001B6842F400625A607B681B685A687B682F
:1021D0001B6822F460425A607B681B6859687B6800
:1021E0005B6A013B5A037B681B680A435A6007E03D
:1021F0007B681B685A687B681B6822F400625A601F
:102200007B681B68DA6A7B681B6822F47002DA62FA
:102210007B681B68D96A7B68DB69013B1A057B68B0
:102220001B680A43DA627B681B689A687B681B68D4
:1022300022F400729A607B681B6899687B6893F847
:1022400030305A027B681B680A439A607B681B68BF
:102250009A687B681B6822F480629A607B681B68BE
:1022600099687B685B699A027B681B680A439A607D
:1022700000BF1437BD465DF8047B70470023014062
:102280000100000F80B584B000AF78607B689B6B65
:10229000FB60FB681B6C03F05003002B3CD1FB6818
:1022A0001B6C43F40072FB681A64FB681B689B6834
:1022B00003F04053002B2BD1FB681B7E002B27D152
:1022C000FB681B68DB6A03F47003002B06D0FB6815
:1022D0001B689B6803F48063002B19D1FB681B68A3
:1022E0005A68FB681B6822F020025A60FB681B6C6E
:1022F00023F48072FB681A64FB681B6C03F4805340
:10230000002B05D1FB681B6C43F00102FB681A64CB
:10231000F868FEF7E5FD0EE0FB681B6C03F01003A8
:10232000002B03D0F868FFF785FD04E0FB689B6B8A
:10233000DB6C7868984700BF1037BD4680BD80B51C
:1023400084B000AF78607B689B6BFB60F868FFF738
:102350005DFD00BF1037BD4680BD80B584B000AFC5
:1023600078607B689B6BFB60FB6840221A64FB68AB
:102370005B6C43F00402FB685A64F868FFF75AFD8F
:1023800000BF1037BD4680BD80B483B000AF786019
:1023900000BF0C37BD465DF8047B704780B485B044
:1023A00000AF78607B6803F00703FB600C4BDB68D1
:1023B000BB60BA684FF6FF031340BB60FB681A02AC
:1023C000BB68134343F0BF6343F40033BB60044A6C
:1023D000BB68D36000BF1437BD465DF8047B70470F
:1023E00000ED00E080B400AF044BDB681B0A03F093
:1023F00007031846BD465DF8047B704700ED00E01A
:1024000080B483B000AF0346FB7197F90730002B0F
:102410000BDBFB7903F01F02074997F907305B09D3
:10242000012000FA02F241F8232000BF0C37BD461C
:102430005DF8047B704700BF00E100E080B483B02A
:1024400000AF03463960FB7197F90730002B0ADBB8
:102450003B68DAB20C4997F907301201D2B20B444B
:1024600083F800230AE03B68DAB20849FB7903F0FD
:102470000F03043B1201D2B20B441A7600BF0C3793
:10248000BD465DF8047B704700E100E000ED00E030
:1024900080B489B000AFF860B9607A60FB6803F07F
:1024A0000703FB61FB69C3F10703042B28BF042367
:1024B000BB61FB690433062B02D9FB69033B00E0D7
:1024C00000237B614FF0FF32BB6902FA03F3DA436A
:1024D000BB681A407B699A404FF0FF317B6901FA73
:1024E00003F3D9437B680B40134318462437BD469A
:1024F0005DF8047B7047000080B582B000AF786063
:102500007B68013BB3F1807F01D301230FE00A4ACE
:102510007B68013B53600F214FF0FF30FFF78EFFC8
:10252000054B00229A60044B07221A6000231846CC
:102530000837BD4680BD00BF10E000E080B582B026
:1025400000AF78607868FFF729FF00BF0837BD4605
:1025500080BD80B586B000AF0346B9607A60FB737A
:1025600000237B61FFF73EFF78617A68B96878697C
:10257000FFF78EFF024697F90F3011461846FFF716
:102580005DFF00BF1837BD4680BD80B582B000AF8B
:102590000346FB7197F907301846FFF731FF00BF7C
:1025A0000837BD4680BD80B582B000AF78607868DE
:1025B000FFF7A2FF034618460837BD4680BD80B529
:1025C00082B000AF78607B68002B01D101230EE060
:1025D0007B685B79DBB2002B05D17B6800221A7126
:1025E0007868FEF7EDFE7B6801225A7100231846D9
:1025F0000837BD4680BD80B487B000AFF860B960D1
:102600007A6000233B61FB6802225A71FB681B68F9
:102610009A68FB681B6842F001029A6000237B61A4
:102620000AE07B699B00BA681A44FB681B68126861
:102630001A607B6901337B617A697B689A42F0D3C7
:10264000FB681B681B683B61FB6801225A713B6990
:1026500018461C37BD465DF8047B704780B586B0D0
:1026600000AF786000237B61FFF722F938617B6857
:10267000002B01D1012399E07B68022283F83520E9
:102680007B68002283F834207B681B681A687B68AB
:102690001B6822F001021A600FE0FFF709F90246F9
:1026A0003B69D31A052B08D97B6820225A657B68C1
:1026B000032283F83520032378E07B681B681B68BE
:1026C00003F00103002BE8D17B681B681B687B616A
:1026D0007A69384B13407B617B685A687B689B68DA
:1026E0001A437B68DB681A437B681B691A437B6863
:1026F0005B691A437B689B691A437B68DB691A43F1
:102700007B681B6A13437A6913437B617B685B6A4E
:10271000042B07D17B68DA6A7B681B6B13437A69E9
:1027200013437B617B681B687A691A607B681B684E
:102730005B697B617B6923F007037B617B685B6A74
:102740007A6913437B617B685B6A042B17D17B68D2
:102750009B6A7A6913437B617B68DB6A002B0ED02E
:10276000786800F001FB0346002B08D07B6840220C
:102770005A657B68012283F83520012316E07B68C7
:102780001B687A695A61786800F0B8FA0346FB6002
:102790007B68DB6D3F229A40FB689A607B68002271
:1027A0005A657B68012283F83520002318461837C4
:1027B000BD4680BD3F8010F080B586B000AFF860A8
:1027C000B9607A603B600023FB75FB689B6D3B61E1
:1027D000FB6893F83430012B01D1022340E0FB6801
:1027E000012283F83420FB6893F83530DBB2012BEB
:1027F0002FD1FB68022283F83520FB6800225A653E
:102800003B687A68B968F86800F04AFAFB68DB6DE3
:102810003F229A403B699A60FB681B681A68FB6814
:102820001B6842F016021A60FB681B6C002B07D075
:10283000FB681B681A68FB681B6842F008021A6094
:10284000FB681B681A68FB681B6842F001021A608B
:1028500005E0FB68002283F834200223FB75FB7D32
:1028600018461837BD4680BD80B584B000AF78608B
:102870007B689B6DFB60FFF71BF8B8607B6893F883
:102880003530DBB2022B08D07B6880225A657B682A
:10289000002283F83420012352E07B681B681A6809
:1028A0007B681B6822F016021A607B681B685A69F5
:1028B0007B681B6822F080025A617B681B6C002BCE
:1028C00003D17B689B6C002B07D07B681B681A6860
:1028D0007B681B6822F008021A607B681B681A6814
:1028E0007B681B6822F001021A6013E0FEF7E0FF2C
:1028F0000246BB68D31A052B0CD97B6820225A6587
:102900007B68032283F835207B68002283F834201B
:10291000032315E07B681B681B6803F00103002B91
:10292000E4D17B68DB6D3F229A40FB689A607B684C
:10293000012283F835207B68002283F834200023AD
:1029400018461037BD4680BD80B483B000AF7860B4
:102950007B6893F83530DBB2022B04D07B68802291
:102960005A6501230CE07B68052283F835207B68DB
:102970001B681A687B681B6822F001021A6000233A
:1029800018460C37BD465DF8047B704780B586B0AD
:1029900000AF78600023BB608E4B1B688E4AA2FBA1
:1029A00003239B0A7B617B689B6D3B613B691B68D2
:1029B000FB607B68DB6D08229A40FB681340002BAC
:1029C0001AD07B681B681B6803F00403002B13D02C
:1029D0007B681B681A687B681B6822F004021A6017
:1029E0007B68DB6D08229A403B699A607B685B6D6F
:1029F00043F001027B685A657B68DB6D01229A40D7
:102A0000FB681340002B12D07B681B685B6903F0E6
:102A10008003002B0BD07B68DB6D01229A403B6961
:102A20009A607B685B6D43F002027B685A657B6845
:102A3000DB6D04229A40FB681340002B12D07B68A8
:102A40001B681B6803F00203002B0BD07B68DB6D57
:102A500004229A403B699A607B685B6D43F00402F4
:102A60007B685A657B68DB6D10229A40FB681340D7
:102A7000002B43D07B681B681B6803F00803002B06
:102A80003CD07B68DB6D10229A403B699A607B6882
:102A90001B681B6803F48023002B18D07B681B681D
:102AA0001B6803F40023002B08D17B681B6C002BF0
:102AB00024D07B681B6C786898471FE07B689B6C10
:102AC000002B1BD07B689B6C7868984716E07B686E
:102AD0001B681B6803F48073002B07D17B681B689D
:102AE0001A687B681B6822F008021A607B681B6CFE
:102AF000002B03D07B681B6C786898477B68DB6D84
:102B000020229A40FB681340002B00F08F807B68E6
:102B10001B681B6803F01003002B00F087807B68A4
:102B2000DB6D20229A403B699A607B6893F83530D0
:102B3000DBB2052B36D17B681B681A687B681B6883
:102B400022F016021A607B681B685A697B681B6852
:102B500022F080025A617B681B6C002B03D17B68DA
:102B60009B6C002B07D07B681B681A687B681B680E
:102B700022F008021A607B68DB6D3F229A403B69B5
:102B80009A607B68012283F835207B68002283F8F5
:102B900034207B681B6D002B7ED07B681B6D7868B2
:102BA000984779E07B681B681B6803F48023002B3F
:102BB0001DD07B681B681B6803F40023002B0DD11C
:102BC0007B685B6C002B31D07B685B6C78689847C6
:102BD0002CE000BF20000020B5814E1B7B68DB6B22
:102BE000002B23D07B68DB6B786898471EE07B68FE
:102BF0001B681B6803F48073002B0FD17B681B6874
:102C00001A687B681B6822F010021A607B68012238
:102C100083F835207B68002283F834207B68DB6BE7
:102C2000002B03D07B68DB6B786898477B685B6D13
:102C3000002B32D07B685B6D03F00103002B22D0A8
:102C40007B68052283F835207B681B681A687B68DF
:102C50001B6822F001021A60BB680133BB607A690D
:102C60009A4207D37B681B681B6803F00103002BA3
:102C7000F2D100E000BF7B68012283F835207B6839
:102C8000002283F834207B68DB6C002B05D07B6846
:102C9000DB6C7868984700E000BF1837BD4680BD00
:102CA00080B485B000AFF860B9607A603B60FB68C3
:102CB0001B681A68FB681B6822F480221A60FB6894
:102CC0001B683A685A60FB689B68402B08D1FB6818
:102CD0001B687A689A60FB681B68BA68DA6007E06C
:102CE000FB681B68BA689A60FB681B687A68DA60E0
:102CF00000BF1437BD465DF8047B704780B485B0D3
:102D000000AF78607B681B68DBB2103B144AA2FB03
:102D100003231B09FB60134AFB6813441B781A4604
:102D20007B68DA65FB68032B09D97B681B6823F491
:102D30007F7323F003031A1D7B689A6507E07B68A5
:102D40001B6823F47F7323F003037A6893657B6821
:102D50009B6D18461437BD465DF8047B704700BF75
:102D6000ABAAAAAAD89E000880B485B000AF78604C
:102D70000023FB737B689B6ABB607B689B69002BAD
:102D80001FD1BB68032B56D801A252F823F000BF15
:102D9000A12D0008B32D0008A12D0008372E000832
:102DA0007B68DB6A03F08073002B46D00123FB7342
:102DB00043E07B68DB6AB3F1C07F40D10123FB7342
:102DC0003DE07B689B69B3F5005F21D1BB68032BB5
:102DD00037D801A252F823F0E92D0008EF2D0008A2
:102DE000E92D0008012E00080123FB7330E07B6809
:102DF000DB6A03F08073002B25D00123FB7322E0F4
:102E00007B68DB6AB3F1C07F1FD10123FB731CE039
:102E1000BB68022B03D9BB68032B03D018E0012346
:102E2000FB7315E07B68DB6A03F08073002B0ED028
:102E30000123FB730BE000BF0AE000BF08E000BF06
:102E400006E000BF04E000BF02E000BF00E000BFFA
:102E5000FB7B18461437BD465DF8047B704700BF06
:102E600080B586B000AFF860B960C7E90023234B96
:102E70001B7E012B01D102233BE0204B01221A765D
:102E80004CF2503000F070F80346FB75FB7D002BD0
:102E90002BD1FB68002B05D13B781946B86800F0B0
:102EA0001BF916E0FB68012B05D13B881946B86871
:102EB00000F0EEF80DE0FB68022B05D13B681946E7
:102EC000B86800F0C3F804E0D7E90023B86800F060
:102ED0008BF84CF2503000F047F80346FB75084B76
:102EE0001B69074A23F001031361044B00221A7681
:102EF000FB7D18461837BD4680BD00BF2C00002062
:102F0000003C024080B483B000AF0023FB710B4B48
:102F10001B69002B0BDA094B094A5A60074B094A17
:102F20005A60064B1B69002B01DA0123FB71FB7908
:102F300018460C37BD465DF8047B7047003C0240E4
:102F400023016745AB89EFCD80B400AF054B1B690A
:102F5000044A43F00043136100231846BD465DF860
:102F6000047B7047003C024080B584B000AF7860BD
:102F70000023FB601A4B0022DA61FEF799FCF8602F
:102F800010E07B68B3F1FF3F0CD07B68002B07D0CB
:102F9000FEF78EFC0246FB68D31A7A689A4201D289
:102FA000032319E00F4BDB6803F48033002BE8D1D7
:102FB0000C4BDB6803F00103002B02D0094B01220C
:102FC000DA60084BDB6803F4F973002B03D000F0E0
:102FD000A5F8012300E0002318461037BD4680BD48
:102FE0002C000020003C024080B485B000AFF860A7
:102FF000C7E90023144B1B69134A23F44073136180
:10300000114B1B69104A43F4407313610E4B1B694B
:103010000D4A43F001031361FB683A681A60BFF37D
:103020006F8F00BFD7E900014FF000024FF000039F
:103030000A000023F968043113460B6000BF1437FF
:10304000BD465DF8047B7047003C024080B483B00D
:1030500000AF786039600D4B1B690C4A23F4407354
:1030600013610A4B1B69094A43F400731361074B50
:103070001B69064A43F0010313617B683A681A60D2
:1030800000BF0C37BD465DF8047B7047003C024032
:1030900080B483B000AF78600B467B800D4B1B691A
:1030A0000C4A23F4407313610A4B1B69094A43F429
:1030B00080731361074B1B69064A43F001031361D8
:1030C0007B687A881A8000BF0C37BD465DF8047BA8
:1030D000704700BF003C024080B483B000AF78600E
:1030E0000B46FB700C4B1B690B4A23F440731361B6
:1030F000094B094A1B691361074B1B69064A43F0D8
:10310000010313617B68FA781A7000BF0C37BD4663
:103110005DF8047B704700BF003C024080B400AF04
:103120002F4BDB6803F01003002B08D02D4BDB691D
:1031300043F010032B4AD361294B1022DA60284B4D
:10314000DB6803F02003002B08D0264BDB6943F03B
:103150000803244AD361224B2022DA60204BDB682B
:1031600003F04003002B08D01E4BDB6943F004033F
:103170001C4AD3611A4B4022DA60194BDB6803F01A
:103180008003002B08D0174BDB6943F00203154A7C
:10319000D361134B8022DA60114BDB6803F4807338
:1031A000002B09D00F4BDB6943F001030D4AD361BB
:1031B0000B4B4FF48072DA60094BDB6803F00203BB
:1031C000002B08D0074BDB6943F02003054AD3618D
:1031D000034B0222DA6000BFBD465DF8047B7047F6
:1031E000003C02402C00002080B584B000AF786025
:1031F00039600023BB60314B1B7E012B01D10223C0
:1032000058E02E4B01221A764CF25030FFF7ACFEFC
:103210000346FB73FB7B002B48D13B684FF0FF322A
:103220001A607B681B68012B15D17B681B69DAB2B9
:103230007B685B681946104600F044F84CF2503049
:10324000FFF792FE0346FB731D4B1B691C4A23F0DC
:103250000403136128E07B689B68BB601CE07B680B
:103260001B69DBB21946B86800F050F84CF25030D8
:10327000FFF77AFE0346FB73114B1B69104A23F0DC
:10328000FA031361FB7B002B03D03B68BA681A601A
:103290000AE0BB680133BB607B68DA687B689B68C7
:1032A0001344BA689A42DAD300F078F8034B00224C
:1032B0001A76FB7B18461037BD4680BD2C000020D7
:1032C000003C024080B483B000AF03463960FB711C
:1032D0000D4B1B690C4A23F4407313610A4B1B69A5
:1032E000094A43F004031361074B1A69FB791B0277
:1032F0001343054A43F48033136100BF0C37BD46C6
:103300005DF8047B704700BF003C024080B485B08C
:1033100000AF78600B46FB700023FB60FB78002B4E
:1033200002D10023FB6010E0FB78012B03D14FF4A6
:103330008073FB6009E0FB78022B03D14FF400732C
:10334000FB6002E04FF44073FB60134B1B69124AB1
:1033500023F440731361104B1A690F49FB68134340
:103360000B610D4B1B690C4A23F0F80313610A4BE8
:103370001A697B68DB001343074A43F002031361B9
:10338000054B1B69044A43F48033136100BF1437B3
:10339000BD465DF8047B7047003C024080B400AF3E
:1033A000204B1B6803F40073002B17D01D4B1B68C8
:1033B0001C4A23F4007313601A4B1B68194A43F428
:1033C00000631360174B1B68164A23F400631360F5
:1033D000144B1B68134A43F400731360114B1B68B2
:1033E00003F48063002B17D00E4B1B680D4A23F4A7
:1033F000806313600B4B1B680A4A43F480531360CD
:10340000084B1B68074A23F480531360054B1B6865
:10341000044A43F48063136000BFBD465DF8047B3B
:10342000704700BF003C024080B489B000AF7860B4
:10343000396000237B6100233B610023BB610023D3
:10344000FB6159E10122FB6902FA03F37B613B68EE
:103450001B687A6913403B613A697B699A4240F084
:1034600048813B685B6803F00303012B05D03B6890
:103470005B6803F00303022B30D17B689B68BB6160
:10348000FB695B00032202FA03F3DB43BA691340D2
:10349000BB613B68DA68FB695B0002FA03F3BA6957
:1034A0001343BB617B68BA699A607B685B68BB61E8
:1034B0000122FB6902FA03F3DB43BA691340BB61E3
:1034C0003B685B681B0903F00102FB6902FA03F326
:1034D000BA691343BB617B68BA695A603B685B6831
:1034E00003F00303032B17D07B68DB68BB61FB6928
:1034F0005B00032202FA03F3DB43BA691340BB61AA
:103500003B689A68FB695B0002FA03F3BA691343EC
:10351000BB617B68BA69DA603B685B6803F00303F0
:10352000022B23D1FB69DA087B68083253F822307A
:10353000BB61FB6903F007039B000F2202FA03F350
:10354000DB43BA691340BB613B681A69FB6903F04E
:1035500007039B0002FA03F3BA691343BB61FB69DB
:10356000DA087B680832B96943F822107B681B6867
:10357000BB61FB695B00032202FA03F3DB43BA6918
:103580001340BB613B685B6803F00302FB695B00AF
:1035900002FA03F3BA691343BB617B68BA691A6024
:1035A0003B685B6803F44033002B00F0A2800023EB
:1035B000FB60574B5B6C564A43F480435364544B57
:1035C0005B6C03F48043FB60FB68524AFB699B0819
:1035D000023352F82330BB61FB6903F003039B0005
:1035E0000F2202FA03F3DB43BA691340BB617B6825
:1035F000494A934219D07B68484A934213D07B686A
:10360000474A93420DD07B68464A934207D07B6875
:10361000454A934201D1042308E0072306E003232F
:1036200004E0022302E0012300E00023FA6902F033
:10363000030292009340BA691343BB613549FB69A9
:103640009B080233BA6941F82320384B9B68BB6161
:103650003B69DB43BA691340BB613B685B6803F4B9
:103660008013002B03D0BA693B691343BB612F4A17
:10367000BB6993602D4BDB68BB613B69DB43BA6977
:103680001340BB613B685B6803F40013002B03D05D
:10369000BA693B691343BB61244ABB69D360234BBE
:1036A0005B68BB613B69DB43BA691340BB613B6844
:1036B0005B6803F40033002B03D0BA693B69134302
:1036C000BB611A4ABB695360184B1B68BB613B69FD
:1036D000DB43BA691340BB613B685B6803F480332A
:1036E000002B03D0BA693B691343BB610F4ABB6926
:1036F0001360FB690133FB61FB690F2B7FF6A2AE00
:1037000000BF00BF2437BD465DF8047B704700BF93
:10371000003802400038014000000240000402402E
:1037200000080240000C024000100240003C014032
:1037300080B483B000AF78600B467B8013467B700B
:103740007B78002B03D07A887B689A6103E07B88C2
:103750001A047B689A6100BF0C37BD465DF8047B94
:103760007047000080B586B000AF78607B68002BA2
:1037700001D1012367E27B681B6803F00103002B82
:1037800075D0884B9B6803F00C03042B0CD0854B41
:103790009B6803F00C03082B12D1824B5B6803F487
:1037A0008003B3F5800F0BD17E4B1B6803F400330D
:1037B000002B5BD07B685B68002B57D1012342E272
:1037C0007B685B68B3F5803F06D1764B1B68754A12
:1037D00043F4803313601DE07B685B68B3F5A02F72
:1037E0000CD1704B1B686F4A43F4802313606D4B00
:1037F0001B686C4A43F4803313600BE0694B1B6811
:10380000684A23F480331360664B1B68654A23F4CF
:10381000802313607B685B68002B13D0FEF748F8A9
:10382000386108E0FEF744F802463B69D31A642B7E
:1038300001D9032307E25B4B1B6803F40033002B21
:10384000F0D014E0FEF734F8386108E0FEF730F805
:1038500002463B69D31A642B01D90323F3E1514B90
:103860001B6803F40033002BF0D100E000BF7B683D
:103870001B6803F00203002B63D04A4B9B6803F0E4
:103880000C03002B0BD0474B9B6803F00C03082B59
:103890001CD1444B5B6803F48003002B16D1414BD1
:1038A0001B6803F00203002B05D07B68DB68012B4B
:1038B00001D00123C7E13B4B1B6823F0F8027B6872
:1038C0001B69DB00374913430B603AE07B68DB6818
:1038D000002B20D0344B01221A60FDF7E9FF38613C
:1038E00008E0FDF7E5FF02463B69D31A022B01D938
:1038F0000323A8E12B4B1B6803F00203002BF0D03D
:10390000284B1B6823F0F8027B681B69DB00254904
:1039100013430B6015E0244B00221A60FDF7C8FF2B
:10392000386108E0FDF7C4FF02463B69D31A022B59
:1039300001D9032387E11B4B1B6803F00203002B13
:10394000F0D17B681B6803F00803002B36D07B683E
:103950005B69002B16D0154B01221A60FDF7A8FFFA
:10396000386108E0FDF7A4FF02463B69D31A022B39
:1039700001D9032367E10B4B5B6F03F00203002BBC
:10398000F0D01BE0094B00221A60FDF791FF38616F
:103990000EE0FDF78DFF02463B69D31A022B07D9D3
:1039A000032350E10038024000004742800E4742A6
:1039B000884B5B6F03F00203002BEAD17B681B6826
:1039C00003F00403002B00F097800023FB75814B6C
:1039D0001B6C03F08053002B0FD10023BB607D4B89
:1039E0001B6C7C4A43F0805313647A4B1B6C03F0CE
:1039F0008053BB60BB680123FB75774B1B6803F4E6
:103A00008073002B18D1744B1B68734A43F4807386
:103A10001360FDF74DFF386108E0FDF749FF0246EE
:103A20003B69D31A022B01D903230CE16A4B1B68B3
:103A300003F48073002BF0D07B689B68012B06D1C8
:103A4000644B1B6F634A43F0010313671CE07B6800
:103A50009B68052B0CD15F4B1B6F5E4A43F0040340
:103A600013675C4B1B6F5B4A43F0010313670BE06A
:103A7000584B1B6F574A23F001031367554B1B6FBD
:103A8000544A23F0040313677B689B68002B15D00E
:103A9000FDF70EFF38610AE0FDF70AFF02463B69B9
:103AA000D31A41F28832934201D90323CBE0494B28
:103AB0001B6F03F00203002BEED014E0FDF7F8FEBD
:103AC00038610AE0FDF7F4FE02463B69D31A41F281
:103AD0008832934201D90323B5E03E4B1B6F03F0BC
:103AE0000203002BEED1FB7D012B05D1394B1B6C62
:103AF000384A23F0805313647B689B69002B00F0E5
:103B0000A180344B9B6803F00C03082B5CD07B68CE
:103B10009B69022B41D1314B00221A60FDF7C8FE90
:103B2000386108E0FDF7C4FE02463B69D31A022B58
:103B300001D9032387E0274B1B6803F00073002B98
:103B4000F0D17B68DA697B681B6A1A437B685B6A21
:103B50009B011A437B689B6A5B08013B1B041A4369
:103B60007B68DB6A1B061B4913434B601B4B01221E
:103B70001A60FDF79DFE386108E0FDF799FE0246E8
:103B80003B69D31A022B01D903235CE0114B1B685C
:103B900003F00073002BF0D054E0104B00221A60A9
:103BA000FDF786FE386108E0FDF782FE02463B69BC
:103BB000D31A022B01D9032345E0064B1B6803F0FF
:103BC0000073002BF0D13DE07B689B69012B07D18E
:103BD000012338E000380240007000406000474296
:103BE0001B4B5B68FB607B689B69012B28D0FB68E3
:103BF00003F480027B68DB699A4221D1FB6803F001
:103C00003F027B681B6A9A421AD1FA6847F6C07372
:103C100013407A68526A9201934211D1FB6803F40F
:103C200040327B689B6A5B08013B1B049A4207D1C8
:103C3000FB6803F070627B68DB6A1B069A4201D066
:103C4000012300E0002318461837BD4680BD00BFA1
:103C50000038024080B584B000AF786039607B687E
:103C6000002B01D10123CCE0684B1B6803F0070354
:103C70003A689A420CD9654B3A68D2B21A70634BD3
:103C80001B6803F007033A689A4201D00123B8E0A9
:103C90007B681B6803F00203002B20D07B681B6845
:103CA00003F00403002B05D0594B9B68584A43F49A
:103CB000E05393607B681B6803F00803002B05D07A
:103CC000534B9B68524A43F460439360504B9B684C
:103CD00023F0F0027B689B684D4913438B607B683F
:103CE0001B6803F00103002B44D07B685B68012B49
:103CF00007D1474B1B6803F40033002B19D1012374
:103D00007FE07B685B68022B03D07B685B68032BDA
:103D100007D13F4B1B6803F00073002B09D101232F
:103D20006FE03B4B1B6803F00203002B01D1012322
:103D300067E0374B9B6823F003027B685B6834497C
:103D400013438B60FDF7B4FDF8600AE0FDF7B0FDAA
:103D50000246FB68D31A41F28832934201D9032309
:103D60004FE02B4B9B6803F00C027B685B689B0069
:103D70009A42EBD1254B1B6803F007033A689A423D
:103D80000CD2224B3A68D2B21A70204B1B6803F057
:103D900007033A689A4201D0012332E07B681B682E
:103DA00003F00403002B08D0194B9B6823F4E05266
:103DB0007B68DB68164913438B607B681B6803F0E4
:103DC0000803002B09D0124B9B6823F460427B68E8
:103DD0001B69DB000E4913438B6000F021F802469B
:103DE0000B4B9B681B0903F00F030A49CB5C22FABB
:103DF00003F3094A1360094B1B681846FDF714FDCD
:103E0000002318461037BD4680BD00BF003C02406D
:103E100000380240C09E000820000020240000203E
:103E20002DE9B04F94B000AF00237B640023FB6406
:103E300000233B640023BB64794B9B6803F00C03B5
:103E4000082B0DD0082B00F2E180002B02D0042BB0
:103E500003D0DBE0734BBB64DBE0734BBB64D8E0A7
:103E60006F4B5B6803F03F037B646D4B5B6803F44F
:103E70008003002B63D06A4B5B689B090022BB6305
:103E8000FA63BB6BC3F308033B6300237B63D7E98F
:103E90000C4522462B464FF000004FF0000159011F
:103EA00041EAD261500102460B462146511A39615E
:103EB000294663EB01037B614FF000024FF00003E2
:103EC000D7E904AB59468B01514643EA9163514609
:103ED0008A015146B2EB0108594663EB01094FF0E4
:103EE00000024FF000034FEAC90343EA58734FEA58
:103EF000C80290469946234618EB0303BB602B4645
:103F000049EB0303FB604FF000024FF00003D7E9D9
:103F1000024529464B02214643EAD15321464A0233
:103F2000104619467B6C0022BB62FA62D7E90A236D
:103F3000FCF7A6F902460B461346FB6458E0384BE3
:103F40005B689B09002218461146C0F308033B62D8
:103F500000237B62D7E9088942464B464FF00000B8
:103F60004FF00001590141EAD261500102460B466F
:103F70004146B2EB010A494663EB010B4FF00002E8
:103F80004FF000034FEA8B1343EA9A634FEA8A1219
:103F9000B2EB0A0463EB0B054FF000024FF0000395
:103FA000EB0043EA5473E20014461D464346E3180F
:103FB0003B604B4645EB03037B604FF000024FF044
:103FC0000003D7E9004529468B02214643EA915375
:103FD00021468A02104619467B6C0022BB61FA61B9
:103FE000D7E90623FCF74CF902460B461346FB645F
:103FF0000B4B5B681B0C03F0030301335B003B645A
:10400000FA6C3B6CB2FBF3F3BB6402E0054BBB64A0
:1040100000BFBB6C18465037BD46BDE8B08F00BF2F
:10402000003802400024F40000127A0080B400AF8F
:10403000034B1B681846BD465DF8047B704700BF04
:104040002000002080B500AFFFF7F0FF0246054BCF
:104050009B689B0A03F007030349CB5C22FA03F336
:10406000184680BD00380240D09E000880B500AFE1
:10407000FFF7DCFF0246054B9B685B0B03F0070371
:104080000349CB5C22FA03F3184680BD0038024096
:10409000D09E000880B582B000AF78607B68002BAE
:1040A00001D1012341E07B6893F83D30DBB2002B66
:1040B00006D17B68002283F83C207868FDF7A2F9DE
:1040C0007B68022283F83D207B681A687B68043392
:1040D0001946104600F070FA7B68012283F84620EA
:1040E0007B68012283F83E207B68012283F83F2011
:1040F0007B68012283F840207B68012283F84120FD
:104100007B68012283F842207B68012283F84320E8
:104110007B68012283F844207B68012283F84520D4
:104120007B68012283F83D20002318460837BD46EE
:1041300080BD000080B485B000AF78607B6893F8E4
:104140003D30DBB2012B01D0012344E07B68022229
:1041500083F83D207B681B68DA687B681B6842F047
:104160000102DA607B681B681E4A934218D07B68A4
:104170001B68B3F1804F13D07B681B681A4A9342C7
:104180000ED07B681B68194A934209D07B681B6874
:10419000174A934204D07B681B68164A934211D198
:1041A0007B681B689B6803F00703FB60FB68062BBA
:1041B00010D07B681B681A687B681B6842F001029C
:1041C0001A6007E07B681B681A687B681B6842F00E
:1041D00001021A60002318461437BD465DF8047BBF
:1041E000704700BF0000014000040040000800408C
:1041F000000C00400040014080B584B000AF786002
:104200007B681B68DB68FB607B681B681B69BB60A5
:10421000BB6803F00203002B20D0FB6803F002030D
:10422000002B1BD07B681B686FF002021A617B6851
:1042300001221A777B681B689B6903F00303002B3C
:1042400003D0786800F099F905E0786800F08BF900
:10425000786800F09CF97B6800221A77BB6803F04D
:104260000403002B20D0FB6803F00403002B1BD0B9
:104270007B681B686FF004021A617B6802221A7760
:104280007B681B689B6903F44073002B03D078683C
:1042900000F073F905E0786800F065F9786800F0DF
:1042A00076F97B6800221A77BB6803F00803002BBD
:1042B00020D0FB6803F00803002B1BD07B681B6831
:1042C0006FF008021A617B6804221A777B681B680A
:1042D000DB6903F00303002B03D0786800F04DF98D
:1042E00005E0786800F03FF9786800F050F97B68E5
:1042F00000221A77BB6803F01003002B20D0FB6864
:1043000003F01003002B1BD07B681B686FF01002BA
:104310001A617B6808221A777B681B68DB6903F4E3
:104320004073002B03D0786800F027F905E0786827
:1043300000F019F9786800F02AF97B6800221A77F2
:10434000BB6803F00103002B0CD0FB6803F00103F2
:10435000002B07D07B681B686FF001021A61786838
:10436000FCF7E8FCBB6803F08003002B0CD0FB6873
:1043700003F08003002B07D07B681B686FF080027E
:104380001A61786800F0B0FABB6803F04003002BB4
:104390000CD0FB6803F04003002B07D07B681B6840
:1043A0006FF040021A61786800F0FBF8BB6803F018
:1043B0002003002B0CD0FB6803F02003002B07D058
:1043C0007B681B686FF020021A61786800F082FA3F
:1043D00000BF1037BD4680BD80B584B000AF7860A7
:1043E00039600023FB737B6893F83C30012B01D1CB
:1043F0000223B4E07B68012283F83C207B68022220
:1044000083F83D207B681B689B68BB60BB6823F01A
:104410007703BB60BB6823F47F43BB607B681B688A
:10442000BA689A603B681B68B3F5005F3ED0B3F58D
:10443000005F00F28780B3F5805F00F08680B3F5FF
:10444000805F7FD8702B1AD0702B7BD8602B50D018
:10445000602B77D8502B3CD0502B73D8402B58D0A2
:10446000402B6FD8302B64D0302B6BD8202B60D0F2
:10447000202B67D8002B5CD0102B5AD062E07B68D1
:1044800018683B6899683B685A683B68DB6800F0CD
:1044900093F97B681B689B68BB60BB6843F077033C
:1044A000BB607B681B68BA689A604FE07B681868DD
:1044B0003B6899683B685A683B68DB6800F07CF9A8
:1044C0007B681B689A687B681B6842F480429A602C
:1044D0003CE07B6818683B6859683B68DB681A46B3
:1044E00000F0F0F87B681B685021184600F049F98D
:1044F0002CE07B6818683B6859683B68DB681A46A3
:1045000000F00FF97B681B686021184600F039F94C
:104510001CE07B6818683B6859683B68DB681A4692
:1045200000F0D0F87B681B684021184600F029F99C
:104530000CE07B681A683B681B681946104600F05F
:1045400020F903E00123FB7300E000BF7B68012238
:1045500083F83D207B68002283F83C20FB7B1846D3
:104560001037BD4680BD80B483B000AF786000BF17
:104570000C37BD465DF8047B704780B483B000AF54
:10458000786000BF0C37BD465DF8047B704780B48F
:1045900083B000AF786000BF0C37BD465DF8047B88
:1045A000704780B483B000AF786000BF0C37BD4661
:1045B0005DF8047B7047000080B485B000AF786080
:1045C00039607B681B68FB607B68374A93420FD079
:1045D0007B68B3F1804F0BD07B68344A934207D09D
:1045E0007B68334A934203D07B68324A934208D1B6
:1045F000FB6823F07003FB603B685B68FA68134359
:10460000FB607B68284A93421BD07B68B3F1804FE4
:1046100017D07B68254A934213D07B68244A934283
:104620000FD07B68234A93420BD07B68224A934287
:1046300007D07B68214A934203D07B68204A93428B
:1046400008D1FB6823F44073FB603B68DB68FA68C1
:104650001343FB60FB6823F080023B685B691343F4
:10466000FB603B689A687B68DA623B681A687B6823
:104670009A627B680C4A934203D13B681A697B6853
:104680001A637B681B6843F004027B681A607B68CE
:1046900001225A617B68FA681A6000BF1437BD4670
:1046A0005DF8047B704700BF00000140000400403B
:1046B00000080040000C0040004001400044014060
:1046C0000048014080B487B000AFF860B9607A60FC
:1046D000FB681B6A7B61FB681B6A23F00102FB68B5
:1046E0001A62FB689B693B613B6923F0F0033B6105
:1046F0007B681B013A6913433B617B6923F00A0322
:104700007B617A69BB6813437B61FB683A699A6194
:10471000FB687A691A6200BF1C37BD465DF8047BEE
:10472000704780B487B000AFF860B9607A60FB680A
:104730001B6A7B61FB681B6A23F01002FB681A622C
:10474000FB689B693B613B6923F470433B617B6879
:104750001B033A6913433B617B6923F0A0037B6130
:10476000BB681B017A6913437B61FB683A699A61F4
:10477000FB687A691A6200BF1C37BD465DF8047B8E
:10478000704780B485B000AF786039607B689B6803
:10479000FB60FB6823F07003FB603A68FB6813431F
:1047A00043F00703FB607B68FA689A6000BF143728
:1047B000BD465DF8047B704780B487B000AFF860F9
:1047C000B9607A603B60FB689B687B617B6923F41E
:1047D0007F437B613B681A027B681A43BB681343C3
:1047E0007A6913437B61FB687A699A6000BF1C3762
:1047F000BD465DF8047B704780B485B000AF78603B
:1048000039607B6893F83C30012B01D1022350E0E2
:104810007B68012283F83C207B68022283F83D20DC
:104820007B681B685B68FB607B681B689B68BB6080
:10483000FB6823F07003FB603B681B68FA68134356
:10484000FB607B681B68FA685A607B681B681C4ABF
:10485000934218D07B681B68B3F1804F13D07B68FC
:104860001B68184A93420ED07B681B68164A934215
:1048700009D07B681B68154A934204D07B681B688B
:10488000134A93420CD1BB6823F08003BB603B68A2
:104890005B68BA681343BB607B681B68BA689A6040
:1048A0007B68012283F83D207B68002283F83C204E
:1048B000002318461437BD465DF8047B704700BFDF
:1048C000000001400004004000080040000C0040CF
:1048D0000040014080B483B000AF786000BF0C3767
:1048E000BD465DF8047B704780B483B000AF78604C
:1048F00000BF0C37BD465DF8047B704780B582B0C1
:1049000000AF78607B68002B01D1012342E07B6817
:1049100093F84130DBB2002B06D17B68002283F88C
:1049200040207868FCF794FD7B68242283F84120BE
:104930007B681B68DA687B681B6822F40052DA60C7
:10494000786800F025FF7B681B681A697B681B6824
:1049500022F490421A617B681B685A697B681B6865
:1049600022F02A025A617B681B68DA687B681B6840
:1049700042F40052DA607B6800225A647B6820228D
:1049800083F841207B68202283F842207B68002244
:104990005A63002318460837BD4680BD80B58AB0EB
:1049A00002AFF860B9603B601346FB8000237B6177
:1049B000FB6893F84130DBB2202B75D1BB68002B2C
:1049C00002D0FB88002B01D101236EE0FB6800229E
:1049D0005A64FB68212283F84120FCF769FF786163
:1049E000FB68FA889A84FB68FA88DA84FB689B681B
:1049F000B3F5805F08D1FB681B69002B04D100234D
:104A0000FB61BB68BB6103E0BB68FB610023BB616A
:104A10002EE03B6800937B6900228021F86800F05B
:104A200062FC0346002B05D0FB68202283F841205E
:104A300003233AE0FB69002B0BD1BB691B881A46A4
:104A4000FB681B68C2F308025A60BB690233BB6192
:104A500007E0FB691A78FB681B685A60FB69013341
:104A6000FB61FB68DB8C9BB2013B9AB2FB68DA848A
:104A7000FB68DB8C9BB2002BCBD13B6800937B693E
:104A800000224021F86800F02EFC0346002B05D0E0
:104A9000FB68202283F84120032306E0FB682022E4
:104AA00083F84120002300E0022318462037BD464A
:104AB00080BD80B584B000AFF860B9601346FB805C
:104AC000FB6893F84230DBB2202B12D1BB68002B7D
:104AD00002D0FB88002B01D101230BE0FB680022F0
:104AE0001A63FB881A46B968F86800F055FC03465B
:104AF00000E0022318461037BD4680BD80B58CB05B
:104B000000AFF860B9601346FB80FB6893F8413052
:104B1000DBB2202B62D1BB68002B02D0FB88002BBC
:104B200001D101235BE0BA68FB681A62FB68FA886E
:104B30009A84FB68FA88DA84FB6800225A64FB686E
:104B4000212283F84120FB689B6B274ADA63FB68CC
:104B50009B6B264A1A64FB689B6B254ADA64FB68E8
:104B60009B6B00221A6507F10803FB62FB68986BD8
:104B7000FB6A1968FB681B6804331A46FB88FDF75B
:104B80001BFE0346002B08D0FB6810225A64FB680A
:104B9000202283F84120012321E0FB681B686FF08D
:104BA00040021A60FB681B681433BB61BB6953E8A1
:104BB000003F7B617B6943F08003BB62FB681B683D
:104BC0001433BA6A7A623B62396A7A6A41E800232E
:104BD000FB61FB69002BE5D1002300E002231846AE
:104BE0003037BD4680BD00BF9D51000837520008D8
:104BF0005352000880B5BAB000AF78607B681B687C
:104C00001B68C7F8E4307B681B68DB68C7F8E030D6
:104C10007B681B685B69C7F8DC300023C7F8D830B5
:104C20000023C7F8D430D7F8E43003F00F03C7F8F7
:104C3000D830D7F8D830002B0FD1D7F8E43003F0B4
:104C40002003002B09D0D7F8E03003F02003002B1D
:104C500003D0786800F0DEFC73E2D7F8D830002B80
:104C600000F0DE80D7F8DC3003F00103002B06D122
:104C7000D7F8E03003F49073002B00F0D180D7F820
:104C8000E43003F00103002B0BD0D7F8E03003F43D
:104C90008073002B05D07B685B6C43F001027B685E
:104CA0005A64D7F8E43003F00403002B0BD0D7F894
:104CB000DC3003F00103002B05D07B685B6C43F014
:104CC00002027B685A64D7F8E43003F00203002B39
:104CD0000BD0D7F8DC3003F00103002B05D07B6844
:104CE0005B6C43F004027B685A64D7F8E43003F04D
:104CF0000803002B11D0D7F8E03003F02003002B7D
:104D000005D1D7F8DC3003F00103002B05D07B6818
:104D10005B6C43F008027B685A647B685B6C002B19
:104D200000F00A82D7F8E43003F02003002B08D00B
:104D3000D7F8E03003F02003002B02D0786800F0B1
:104D400069FC7B681B685B6903F04003402B0CBF68
:104D500001230023DBB2C7F8D4307B685B6C03F01F
:104D60000803002B03D1D7F8D430002B4FD078683C
:104D700000F074FB7B681B685B6903F04003402B09
:104D800041D17B681B681433C7F89C30D7F89C303E
:104D900053E8003FC7F89830D7F8983023F0400325
:104DA000C7F8D0307B681B681433D7F8D020C7F819
:104DB000A820C7F8A430D7F8A410D7F8A82041E855
:104DC0000023C7F8A030D7F8A030002BD9D17B68DA
:104DD000DB6B002B13D07B68DB6B8A4A1A657B6820
:104DE000DB6B1846FDF7B0FD0346002B16D07B6841
:104DF000DB6B1B6D7A68D26B104698470EE07868C3
:104E000000F0B6F90AE0786800F0B2F906E07868D8
:104E100000F0AEF97B6800225A648DE100BF8BE19F
:104E20007B681B6B012B40F06781D7F8E43003F0FF
:104E30001003002B00F06081D7F8E03003F010037E
:104E4000002B00F059810023BB607B681B681B6846
:104E5000BB607B681B685B68BB60BB687B681B686A
:104E60005B6903F04003402B40F0CE807B68DB6B36
:104E70001B685B68A7F8BE30B7F8BE30002B00F0A7
:104E8000A9807B689B8DB7F8BE209A4280F0A280F3
:104E90007B68B7F8BE20DA857B68DB6BDB69B3F52E
:104EA000807F00F088807B681B680C33C7F88830EF
:104EB000D7F8883053E8003FC7F88430D7F88430FB
:104EC00023F48073C7F8B8307B681B680C33D7F8BD
:104ED000B820C7F89420C7F89030D7F89010D7F8CA
:104EE000942041E80023C7F88C30D7F88C30002B91
:104EF000D9D17B681B6814337B677B6F53E8003F15
:104F00003B673B6F23F00103C7F8B4307B681B6835
:104F10001433D7F8B420C7F88020FB67F96FD7F8AF
:104F2000802041E80023BB67BB6F002BE1D17B6889
:104F30001B6814333B663B6E53E8003FFB65FB6D1B
:104F400023F04003C7F8B0307B681B681433D7F8F0
:104F5000B020FA66BB66B96EFA6E41E800237B6644
:104F60007B6E002BE3D17B68202283F842207B6894
:104F700000221A637B681B680C33FB64FB6C53E8EC
:104F8000003FBB64BB6C23F01003C7F8AC307B68F8
:104F90001B680C33D7F8AC20BA657B65796DBA6DA8
:104FA00041E800233B653B6D002BE3D17B68DB6B65
:104FB0001846FDF759FC7B6802225A637B689A8D7C
:104FC0007B68DB8D9BB2D31A9BB21946786800F0E0
:104FD000D9F8B3E07B689B8DB7F8BE209A4240F0C9
:104FE000AD807B68DB6BDB69B3F5807F40F0A6802A
:104FF0007B6802225A637B689B8D1946786800F0B3
:10500000C1F89BE0235500087B689A8D7B68DB8D97
:105010009BB2D31AA7F8CE307B68DB8D9BB2002BF6
:1050200000F08E80B7F8CE30002B00F089807B68CE
:105030001B680C33BB63BB6B53E8003F7B637B6B2C
:1050400023F49073C7F8C8307B681B680C33D7F81B
:10505000C8207A643B64396C7A6C41E80023FB63B6
:10506000FB6B002BE3D17B681B6814337B627B6A8C
:1050700053E8003F3B623B6A23F00103C7F8C430AA
:105080007B681B681433D7F8C4203A63FB62F96A63
:105090003A6B41E80023BB62BB6A002BE3D17B681B
:1050A000202283F842207B6800221A637B681B68F9
:1050B0000C333B613B6953E8003FFB60FB6823F026
:1050C0001003C7F8C0307B681B680C33D7F8C020CA
:1050D000FA61BB61B969FA6941E800237B617B69C8
:1050E000002BE3D17B6802225A63B7F8CE30194611
:1050F000786800F047F823E0D7F8E43003F0800345
:10510000002B09D0D7F8E03003F08003002B03D048
:10511000786800F017FA14E0D7F8E43003F04003A1
:10512000002B0ED0D7F8E03003F04003002B08D05E
:10513000786800F057FA04E000BF02E000BF00E02A
:1051400000BFE837BD4680BD80B483B000AF786053
:1051500000BF0C37BD465DF8047B704780B483B058
:1051600000AF786000BF0C37BD465DF8047B704728
:1051700080B483B000AF786000BF0C37BD465DF8E7
:10518000047B704780B483B000AF78600B467B80AF
:1051900000BF0C37BD465DF8047B704780B590B00A
:1051A00000AF78607B689B6BFB637B681B681B6848
:1051B00003F48073002B37D1FB6B0022DA84FB6B86
:1051C0001B6814337B627B6A53E8003F3B623B6A97
:1051D00023F08003BB63FB6B1B681433BA6B3A6329
:1051E000FB62F96A3A6B41E80023BB62BB6A002BA1
:1051F000E5D1FB6B1B680C333B613B6953E8003F17
:10520000FB60FB6843F040037B63FB6B1B680C3364
:105210007A6BFA61BB61B969FA6941E800237B6185
:105220007B69002BE5D102E0F86BFFF78DFF00BF33
:105230004037BD4680BD80B584B000AF78607B68E4
:105240009B6BFB60F868FFF789FF00BF1037BD4616
:1052500080BD80B584B000AF78600023FB607B68C0
:105260009B6BBB60BB681B685B6903F08003802B92
:105270000CBF01230023DBB2FB60BB6893F8413015
:10528000DBB2212B08D1FB68002B05D0BB680022C4
:10529000DA84B86800F0BAF8BB681B685B6903F091
:1052A0004003402B0CBF01230023DBB2FB60BB6833
:1052B00093F84230DBB2222B08D1FB68002B05D0DB
:1052C000BB680022DA85B86800F0C8F8BB685B6C80
:1052D00043F01002BB685A64B868FFF749FF00BF8B
:1052E0001037BD4680BD80B586B000AFF860B960AC
:1052F0003B601346FB713BE03B6AB3F1FF3F37D0A5
:10530000FCF7D6FA02463B68D31A3A6A9A4202D3AD
:105310003B6A002B01D103233AE0FB681B68DB6882
:1053200003F00403002B23D0BB68802B20D0BB6884
:10533000402B1DD0FB681B681B6803F00803082B7B
:1053400016D100237B61FB681B681B687B61FB68CF
:105350001B685B687B617B69F86800F07FF8FB681D
:1053600008225A64FB68002283F8402001230FE0E2
:10537000FB681B681A68BB681340BA689A420CBF86
:1053800001230023DBB21A46FB799A42B4D00023F2
:1053900018461837BD4680BD80B485B000AFF860B0
:1053A000B9601346FB80FB68BA689A62FB68FA88AA
:1053B0009A85FB68FA88DA85FB6800225A64FB68E4
:1053C000222283F84220FB681B69002B07D0FB6870
:1053D0001B68DA68FB681B6842F48072DA60FB685D
:1053E0001B685A69FB681B6842F001025A61FB683E
:1053F0001B68DA68FB681B6842F02002DA60002351
:1054000018461437BD465DF8047B704780B489B0F8
:1054100000AF78607B681B680C33FB60FB6853E867
:10542000003FBB60BB6823F0C003FB617B681B6867
:105430000C33FA69BA617B617969BA6941E8002382
:105440003B613B69002BE5D17B68202283F841203A
:1054500000BF2437BD465DF8047B704780B495B02B
:1054600000AF78607B681B680C337B637B6B53E811
:10547000003F3B633B6B23F49073FB647B681B68CA
:105480000C33FA6C3A64FB63F96B3A6C41E8002325
:10549000BB63BB6B002BE5D17B681B6814333B629D
:1054A0003B6A53E8003FFB61FB6923F00103BB64E7
:1054B0007B681B681433BA6CFA62BB62B96AFA6A19
:1054C00041E800237B627B6A002BE5D17B681B6B84
:1054D000012B19D17B681B680C33FB60FB6853E818
:1054E000003FBB60BB6823F010037B647B681B68D4
:1054F0000C337A6CBA617B617969BA6941E800233F
:105500003B613B69002BE5D17B68202283F8422078
:105510007B6800221A6300BF5437BD465DF8047BE8
:10552000704780B584B000AF78607B689B6BFB6090
:10553000FB680022DA85F868FFF71AFE00BF103713
:10554000BD4680BD80B485B000AF78607B6893F8BD
:105550004130DBB2212B3ED17B689B68B3F5805F85
:1055600014D17B681B69002B10D17B681B6AFB6020
:10557000FB681B881A467B681B68C2F308025A60E6
:105580007B681B6A9A1C7B681A6208E07B681B6A4E
:10559000591C7A6811621A787B681B685A607B68AC
:1055A000DB8C9BB2013B9BB27A681946D184002BFD
:1055B0000FD17B681B68DA687B681B6822F0800269
:1055C000DA607B681B68DA687B681B6842F040021F
:1055D000DA60002300E0022318461437BD465DF868
:1055E000047B704780B582B000AF78607B681B6831
:1055F000DA687B681B6822F04002DA607B68202250
:1056000083F841207868FFF79FFD0023184608378C
:10561000BD4680BD80B58CB000AF78600023FB62D2
:105620000023BB627B6893F84230DBB2222B40F050
:10563000AA807B689B68B3F5805F15D17B681B6986
:10564000002B11D17B689B6ABB627B681B685B681F
:105650009BB2C3F308039AB2BB6A1A807B689B6A49
:105660009A1C7B689A6224E07B689B6AFB627B6879
:105670009B68B3F5805F07D07B689B68002B0AD1DD
:105680007B681B69002B06D17B681B685B68DAB2FC
:10569000FB6A1A7008E07B681B685B68DBB203F08A
:1056A0007F03DAB2FB6A1A707B689B6A5A1C7B68BC
:1056B0009A627B68DB8D9BB2013B9BB27A6819468C
:1056C000D185002B5DD17B681B68DA687B681B681D
:1056D00022F02002DA607B681B68DA687B681B684E
:1056E00022F48072DA607B681B685A697B681B68E9
:1056F00022F001025A617B68202283F842207B68F5
:1057000000225A637B681B6B012B35D17B6800221A
:105710001A637B681B680C337B617B6953E8003F2D
:105720003B613B6923F010037B627B681B680C3391
:105730007A6A3A62FB61F9693A6A41E80023BB611F
:10574000BB69002BE5D17B681B681B6803F0100365
:10575000102B0AD10023FB607B681B681B68FB6071
:105760007B681B685B68FB60FB687B689B8D1946E8
:105770007868FFF707FD02E07868FBF777FA002307
:1057800002E0002300E0022318463037BD4680BD0A
:105790002DE9B04FC0B000AFC7F8F400D7F8F4302F
:1057A0001B681B6923F44050D7F8F430D968D7F848
:1057B000F4301A6840EA01031361D7F8F4309A68AC
:1057C000D7F8F4301B691A43D7F8F4305B691A43F1
:1057D000D7F8F430DB691343C7F8F830D7F8F43062
:1057E0001B68DB6823F4164121F00C01D7F8F43074
:1057F0001A68D7F8F8300B43D360D7F8F4301B6839
:105800005B6923F44070D7F8F4309969D7F8F43025
:105810001A6840EA01035361D7F8F4301A688F4BD5
:105820009A4205D0D7F8F4301A688D4B9A4204D1C9
:10583000FEF71CFCC7F8FC0003E0FEF703FCC7F80A
:10584000FC00D7F8F430DB69B3F5004F40F00C8171
:10585000D7F8FC300022C7F8E830C7F8EC20D7E9C9
:105860003A4522462B469118B9655B41FB65D7E95D
:105870001623214612EB0108294643EB01094FF09C
:1058800000024FF000034FEAC90343EA58734FEA9E
:10589000C80290469946234618EB0303C7F8E03048
:1058A0002B4649EB0303C7F8E430D7F8F4305B68C4
:1058B0000022C7F8D830C7F8DC20D7E936120B46EB
:1058C000DB183B65134642EB03037B65D7E91423E2
:1058D000D7E93801FAF7D4FC02460B46614BA3FB2B
:1058E00002235B091C01D7F8FC300022C7F8D03036
:1058F000C7F8D420D7E9348942464B469118B96499
:105900005B41FB64D7E91223414612EB010A494689
:1059100043EB010B4FF000024FF000034FEACB03C3
:1059200043EA5A734FEACA0292469B4643461AEB31
:105930000303C7F8C8304B464BEB0303C7F8CC3022
:10594000D7F8F4305B680022C7F8C030C7F8C4202D
:10595000D7E930120B46DB183B64134642EB0303D6
:105960007B64D7E91023D7E93201FAF789FC0246B4
:105970000B4611463B4BA3FB01235B09642202FB50
:1059800003F3CB1ADB0003F13202364BA3FB0223F5
:105990005B095B0003F4F8731C44D7F8FC30002269
:1059A000C7F8B830C7F8BC20D7E92E8942464B4625
:1059B0009118B9635B41FB63D7E90E234146511847
:1059C000396349464B417B634FF000024FF00003BF
:1059D000D7E90CAB5946CB00514643EA51735146C7
:1059E000CA0010461946034642469B18C7F8B03015
:1059F0004B460A4642EB0303C7F8B430D7F8F430FD
:105A00005B680022C7F8A830C7F8AC20D7E92A1293
:105A10000B46DB18BB62134642EB0303FB62D7E97C
:105A20000A23D7E92C01FAF72BFC02460B460D4B53
:105A3000A3FB02135B09642101FB03F3D31ADB0010
:105A40003233084AA2FB03235B0903F00702D7F8AD
:105A5000F4301B6822449A6006E100BF0010014048
:105A6000001401401F85EB51D7F8FC300022C7F825
:105A7000A030C7F8A420D7E9288942464B469118A0
:105A800039625B417B62D7E9082341465418494695
:105A900043EB01054FF000024FF00003EB0043EA37
:105AA0005473E20014461D464346E318C7F8983085
:105AB0004B4645EB0303C7F89C30D7F8F4305B68DE
:105AC0000022C7F89030C7F894204FF000024FF042
:105AD0000003D7E9244529468B00214643EA917308
